:100000000C9434000C9451000C9451000C94510049
:100010000C9451000C9451000C9451000C9451001C
:100020000C9451000C9451000C9451000C9451000C
:100030000C9451000C9451000C9451000C945100FC
:100040000C9451000C9451000C9451000C945100EC
:100050000C9451000C9451000C9451000C945100DC
:100060000C9451000C94510011241FBECFEFD8E026
:10007000DEBFCDBF11E0A0E0B1E0E8E8F9E002C0EA
:1000800005900D92A431B107D9F721E0A4E1B1E0C8
:1000900001C01D92A733B207E1F70E943C020C9405
:1000A000C2040C9400000E94FC0086E40E9422011D
:1000B00081E00E9422010E941A018FE39CE90197CE
:1000C000F1F700C000000E94FC0086E40E942201BB
:1000D00083E10E9422010E941A019FEF23EC89E034
:1000E000915020408040E1F700C000000895CF9378
:1000F000DF9300D0CDB7DEB70E94FC0087E40E94FA
:10010000220161E0CE0101960E94360160E0CE013D
:1001100002960E9436010E941A01698170E0762FD2
:1001200066278A81682B072E000C880B990B0E948A
:10013000D0032AE939E949E95FE30E942D030E94CF
:100140009F03CB010F900F90DF91CF9108950F93F4
:100150001F93CF938B019C01C42F87B18F7C87B9EC
:10016000443079F018F4413031F022C0403191F040
:100170004034C9F01DC0E9EBF0E080818C7F8083C2
:1001800017C0E9EBF0E080818D7F80838081816002
:1001900080830EC0E9EBF0E080818E7F80838081D8
:1001A0008260808305C0E9EBF0E08081836080831A
:1001B00060E074E284EF90E0A90198010E945C0481
:1001C000CA01B90160517109810991094C2F50E0B0
:1001D0009A01220F331F032E000C440B550B0E9473
:1001E0005C042093B800ECEBF0E0808184608083B5
:1001F000CF911F910F91089584EA8093BC00809164
:10020000BC008823E4F79091B900987F81E0983092
:1002100009F080E0089584EA8093BC008091BC00DE
:100220008823E4F79091B900987F81E0903109F03C
:1002300080E0089584E98093BC008091BC0084FD37
:10024000FCCF08958093BB0084E88093BC0080912C
:10025000BC008823E4F78091B900887F883121F0C1
:10026000883219F481E0089581E00895FC01662345
:1002700021F084EC8093BC0003C084E88093BC0030
:100280009091BC009923E4F79091B900987F662380
:1002900011F0903549F4611102C0983539F480911C
:1002A000BB00808381E0089580E0089580E0089598
:1002B00080FF04C09BB190619BB903C09BB19F7E3E
:1002C0009BB981FF04C09BB190629BB903C09BB1F5
:1002D0009F7D9BB982FF04C09BB190649BB903C012
:1002E0009BB19F7B9BB983FF04C09BB190689BB976
:1002F00003C09BB19F779BB984FF04C095B1916007
:1003000095B903C095B19E7F95B985FF04C095B19D
:10031000926095B903C095B19D7F95B986FF04C0E1
:1003200095B1946095B903C095B19B7F95B9882329
:1003300024F485B1886085B9089585B1877F85B932
:1003400008959BB19B7F9BB90E9458018BB1886037
:100350008BB98FE79EE30197F1F700C000008BB1E6
:10036000877F8BB908958AB18C6F8AB984B18F6009
:1003700084B980E00E9458012FEF89EF90E021506E
:1003800080409040E1F700C0000083E00E94A1019E
:100390008FE19EE40197F1F700C0000083E00E9426
:1003A000A1018FED9BEA0197F1F700C0000083E007
:1003B0000E94A10182E00E94A10188E30E94A101A4
:1003C00080E00E94A1018CE00E94A10180E00E94D7
:1003D000A10186E00E94A10180E00E94A10181E0CC
:1003E0000E94A10108959BB194609BB90E9458019D
:1003F0008BB188608BB98FE79EE30197F1F700C05E
:1004000000008BB1877F8BB908950F931F93CF9313
:10041000DF938C01C0E0D0E003C00E94F30121967D
:10042000F801EC0FFD1F80818111F7CFDF91CF9193
:100430001F910F910895613021F481580E94A1010C
:100440000895623019F481540E94A10108950E9418
:100450007700803D27E0920768F49C01A4E6B0E0B5
:100460000E947E0420ED37E040E050E00E945C04F2
:10047000822F089584E608950E94B30141E060EA66
:1004800076E881E090E00E94A7000E94530061E0BE
:1004900081E00E941B0280E091E00E94050261E081
:1004A00086E00E941B0286E091E00E9405020E9405
:1004B000FC008823E1F380E60E942201811103C041
:1004C0000E941A01F4CF82E50E9422018FE39CE989
:1004D0000197F1F700C000000E940B01811103C0D9
:1004E0000E941A01E4CF81E60E942201811103C01B
:1004F0000E941A01DCCF60E084E191E00E943601A5
:100500000E941A0162E081E00E941B028DE091E0EE
:100510000E94050262E081E00E941B0280911401AA
:100520004AE069E171E090E00E948D0489E191E088
:100530000E9405029FEF20E782E09150204080401A
:10054000E1F700C000000E94FC00882309F4AFCF4F
:1005500084E60E942201811103C00E941A01A7CFE4
:10056000809114010E9422010E941A010E94270218
:10057000C82F4AE063E271E090E00E948D040E947F
:10058000FC00882309F493CF80E60E9422018111A8
:1005900003C00E941A018BCF8CE40E9422018C2F91
:1005A0000E9422010E941A010E94FC00882309F483
:1005B0007ECF84E60E942201811103C00E941A01AD
:1005C00076CF82E50E9422018FE39CE90197F1F743
:1005D00000C000000E940B01811103C00E941A019B
:1005E00066CF85E60E942201811103C00E941A0194
:1005F0005ECF60E084E191E00E9436010E941A0122
:100600008091140190E0880F991F880F991F909393
:1006100016018093150162E086E00E941B028DE0C6
:1006200091E00E94050262E086E00E941B02809138
:1006300014014AE06DE271E090E00E948D048DE2C9
:1006400091E00E9405029FEF20E782E09150204058
:100650008040E1F700C000002ACF0E9441030C94C3
:1006600022040E941B0458F00E94140440F029F454
:100670005F3F29F00C940B0451110C9456040C9418
:1006800011040E94330468F39923B1F3552391F3C5
:10069000951B550BBB27AA2762177307840738F0F1
:1006A0009F5F5F4F220F331F441FAA1FA9F335D04E
:1006B0000E2E3AF0E0E832D091505040E695001C02
:1006C000CAF72BD0FE2F29D0660F771F881FBB1FBC
:1006D000261737074807AB07B0E809F0BB0B802D9A
:1006E000BF01FF2793585F4F3AF09E3F510578F0C6
:1006F0000C940B040C9456045F3FE4F3983ED4F33F
:10070000869577956795B795F7959F5FC9F7880F99
:10071000911D9695879597F90895E1E0660F771FEB
:10072000881FBB1F621773078407BA0720F0621B7C
:10073000730B840BBA0BEE1F88F7E09508950E94A7
:100740003B0488F09F5798F0B92F9927B751B0F024
:10075000E1F0660F771F881F991F1AF0BA95C9F745
:1007600014C0B13091F00E945504B1E008950C948A
:100770005504672F782F8827B85F39F0B93FCCF33D
:10078000869577956795B395D9F73EF490958095C2
:10079000709561957F4F8F4F9F4F0895E89409C0E2
:1007A00097FB3EF490958095709561957F4F8F4FA4
:1007B0009F4F9923A9F0F92F96E9BB279395F695BA
:1007C000879577956795B795F111F8CFFAF4BB0F38
:1007D00011F460FF1BC06F5F7F4F8F4F9F4F16C09C
:1007E000882311F096E911C0772321F09EE8872F26
:1007F000762F05C0662371F096E8862F70E060E0E2
:100800002AF09A95660F771F881FDAF7880F96955A
:10081000879597F9089597F99F6780E870E060E001
:1008200008959FEF80EC089500240A941616170689
:1008300018060906089500240A94121613061406D1
:1008400005060895092E0394000C11F4882352F034
:10085000BB0F40F4BF2B11F460FF04C06F5F7F4FEC
:100860008F4F9F4F089557FD9058440F551F59F0D3
:100870005F3F71F04795880F97FB991F61F09F3F8D
:1008800079F087950895121613061406551FF2CFB6
:100890004695F1DF08C0161617061806991FF1CF06
:1008A00086957105610508940895E894BB2766272D
:1008B0007727CB0197F90895A1E21A2EAA1BBB1B3B
:1008C000FD010DC0AA1FBB1FEE1FFF1FA217B3071C
:1008D000E407F50720F0A21BB30BE40BF50B661F32
:1008E000771F881F991F1A9469F7609570958095F6
:1008F00090959B01AC01BD01CF010895A29FB0016D
:10090000B39FC001A39F700D811D1124911DB29F43
:10091000700D811D1124911D0895BB274A3031F4BB
:10092000992322F4BDE2909581959F4F0C949904F0
:10093000BB27FB015527AA27880F991FAA1FA417B9
:1009400010F0A41B83955051B9F7A05DAA3308F0AD
:10095000A95DA193009779F7B111B1931192CB01E1
:100960000C94B204DC01FC01672F71917723E1F74D
:10097000329704C07C916D9370836291AE17BF076C
:08098000C8F30895F894FFCFBD
:100988004469733A20005065736F3A200020202094
:04099800202000001B
:00000001FF
