S019000050726F796563746F314D61657374726F312E7372656379
S11300000C9434000C9451000C9451000C94510045
S11300100C9451000C9451000C9451000C94510018
S11300200C9451000C9451000C9451000C94510008
S11300300C9451000C9451000C9451000C945100F8
S11300400C9451000C9451000C9451000C945100E8
S11300500C9451000C9451000C9451000C945100D8
S11300600C9451000C94510011241FBECFEFD8E022
S1130070DEBFCDBF11E0A0E0B1E0EAE8F3E102C0E9
S113008005900D92AC33B107D9F721E0ACE3B1E0B0
S113009001C01D92A537B207E1F70E943C020C94FF
S11300A0C3090C9400000E94FC0086E40E94220113
S11300B081E00E9422010E941A018FE39CE90197CA
S11300C0F1F700C000000E94FC0086E40E942201B7
S11300D083E10E9422010E941A019FEF23EC89E030
S11300E0915020408040E1F700C000000895CF9374
S11300F0DF9300D0CDB7DEB70E94FC0087E40E94F6
S1130100220161E0CE0101960E94360160E0CE0139
S113011002960E9436010E941A01698170E0762FCE
S113012066278A81682B072E000C880B990B0E9486
S1130130E7052AE939E949E95FE30E9444050E9499
S1130140B605CB010F900F90DF91CF9108950F93D7
S11301501F93CF938B019C01C42F87B18F7C87B9E8
S1130160443079F018F4413031F022C0403191F03C
S11301704034C9F01DC0E9EBF0E080818C7F8083BE
S113018017C0E9EBF0E080818D7F808380818160FE
S113019080830EC0E9EBF0E080818E7F80838081D4
S11301A08260808305C0E9EBF0E080818360808316
S11301B060E074E284EF90E0A90198010E94730664
S11301C0CA01B90160517109810991094C2F50E0AC
S11301D09A01220F331F032E000C440B550B0E946F
S11301E073062093B800ECEBF0E080818460808398
S11301F0CF911F910F91089584EA8093BC00809160
S1130200BC008823E4F79091B900987F81E098308E
S113021009F080E0089584EA8093BC008091BC00DA
S11302208823E4F79091B900987F81E0903109F038
S113023080E0089584E98093BC008091BC0084FD33
S1130240FCCF08958093BB0084E88093BC00809128
S1130250BC008823E4F78091B900887F883121F0BD
S1130260883219F481E0089581E00895FC01662341
S113027021F084EC8093BC0003C084E88093BC002C
S11302809091BC009923E4F79091B900987F66237C
S113029011F0903549F4611102C0983539F4809118
S11302A0BB00808381E0089580E0089580E0089594
S11302B080FF04C09BB190619BB903C09BB19F7E3A
S11302C09BB981FF04C09BB190629BB903C09BB1F1
S11302D09F7D9BB982FF04C09BB190649BB903C00E
S11302E09BB19F7B9BB983FF04C09BB190689BB972
S11302F003C09BB19F779BB984FF04C095B1916003
S113030095B903C095B19E7F95B985FF04C095B199
S1130310926095B903C095B19D7F95B986FF04C0DD
S113032095B1946095B903C095B19B7F95B9882325
S113033024F485B1886085B9089585B1877F85B92E
S113034008959BB19B7F9BB90E9458018BB1886033
S11303508BB98FE79EE30197F1F700C000008BB1E2
S1130360877F8BB908958AB18C6F8AB984B18F6005
S113037084B980E00E9458012FEF89EF90E021506A
S113038080409040E1F700C0000083E00E94A1019A
S11303908FE19EE40197F1F700C0000083E00E9422
S11303A0A1018FED9BEA0197F1F700C0000083E003
S11303B00E94A10182E00E94A10188E30E94A101A0
S11303C080E00E94A1018CE00E94A10180E00E94D3
S11303D0A10186E00E94A10180E00E94A10181E0C8
S11303E00E94A10108959BB194609BB90E94580199
S11303F08BB188608BB98FE79EE30197F1F700C05A
S113040000008BB1877F8BB908950F931F93CF930F
S1130410DF938C01C0E0D0E003C00E94F301219679
S1130420F801EC0FFD1F80818111F7CFDF91CF918F
S11304301F910F910895613021F481580E94A10108
S11304400895623019F481540E94A10108950E9414
S11304507700803D27E0920768F49C01A4E6B0E0B1
S11304600E94950620ED37E040E050E00E947306BC
S1130470822F089584E608950E9406050E94B30120
S113048041E060EA76E881E090E00E94A7000E94E3
S1130490530061E081E00E941B0280E091E00E9431
S11304A0050261E086E00E941B0286E091E00E9462
S11304B0050261E08CE00E941B028DE091E00E9445
S11304C005020E943C05882361F00E9435058033B3
S11304D019F410923C0105C0813319F481E0809332
S11304E03C0180913C0181114EC10E94FC00882393
S11304F041F380E60E942201811103C00E941A0187
S1130500E0CF82E50E9422018FE19EE40197F1F79A
S113051000C000000E940B01811103C00E941A0157
S1130520D0CF81E60E942201811103C00E941A01EA
S1130530C8CF60E08EE391E00E9436010E941A0168
S113054080913E0180933D0162E081E00E941B02A4
S113055083E191E00E94050262E081E00E941B02B7
S113056080913D014AE067E571E090E00E94A406B5
S113057087E591E00E9405028FE19EE40197F1F77F
S113058000C000000E94FC00882309F49ACF84E68E
S11305900E942201811103C00E941A0192CF82E5B8
S11305A00E9422018FE19EE40197F1F700C0000050
S11305B00E940B01811103C00E941A0182CF85E6BB
S11305C00E942201811103C00E941A017ACF60E0C7
S11305D08EE391E00E9436010E941A0180913E014F
S11305E090E0880F991F880F991F9093540180936E
S11305F053010E942702182FC82FD0E04AE061E679
S113060071E0CE010E94A4060E94FC00882309F434
S113061058CF80E60E942201811103C00E941A0172
S113062050CF8CE40E942201812F0E9422010E945B
S11306301A0162E086E00E941B0283E191E00E94BD
S1130640050262E086E00E941B024AE06BE671E06C
S113065080915301909154010E94A4068BE691E08D
S11306600E9405028FE19EE40197F1F700C00000AB
S113067062E08BE00E941B0283E191E00E9405028C
S113068062E08BE00E941B024AE061E671E0CE0169
S11306900E94A40681E691E00E9405028FE19EE497
S11306A00197F1F700C00000809154018F9380916D
S11306B053018F9389E191E09F938F93CFE3D1E02E
S11306C0DF93CF930E94C906CE010E9422058FE5D5
S11306D09AEE0197F1F700C000001F921F938EE17C
S11306E091E09F938F93DF93CF930E94C906CE012D
S11306F00E9422058FE59AEE0197F1F700C00000F1
S113070080913D011F928F9383E291E09F938F9399
S1130710DF93CF930E94C906CE010E9422058FE584
S11307209AEE0197F1F700C0000080913D012DB7CA
S11307303EB72E5E3F4F0FB6F8943EBF0FBE2DBF9F
S11307408F3028F488E291E00E94220504C08CE2F4
S113075091E00E94220580915301909154018F30C1
S1130760910528F480E391E00E942205AACEC29765
S113077028F484E391E00E942205A3CE88E391E06B
S11307800E9422059ECE813009F09BCE0E94FC007F
S1130790882309F496CE80E60E942201811103C0C9
S11307A00E941A018ECE84E50E9422018FE19EE40C
S11307B00197F1F700C000000E940B01811103C0F2
S11307C00E941A017ECE81E60E942201811103C09B
S11307D00E941A0176CE60E08EE391E00E94360119
S11307E00E941A0180913E0180933D0162E081E004
S11307F00E941B0283E191E00E94050262E081E015
S11308000E941B0280913D014AE067E571E090E09F
S11308100E94A40687E591E00E9405028FE19EE410
S11308200197F1F700C000000E94FC00882309F43E
S113083048CE84E60E942201811103C00E941A015D
S113084040CE84E50E9422018FE19EE40197F1F7F6
S113085000C000000E940B01811103C00E941A0114
S113086030CE85E60E942201811103C00E941A0144
S113087028CE60E08EE391E00E9436010E941A01C6
S113088080913E0190E0880F991F880F991F9093E3
S11308905401809353010E942702182FC82FD0E0DF
S11308A04AE061E671E0CE010E94A4060E94FC00C9
S11308B0882309F406CE80E60E942201811103C038
S11308C00E941A01FECD8CE40E94220181E00E9464
S11308D022010E941A010E94FC00882309F4F1CD30
S11308E084E60E942201811103C00E941A01E9CD0D
S11308F084E50E94220183E00E9422010E941A01E1
S113090062E086E00E941B0283E191E00E940502FE
S113091062E086E00E941B024AE06BE671E080918F
S11309205301909154010E94A4068BE691E00E9429
S113093005028FE19EE40197F1F700C0000062E038
S11309408BE00E941B0283E191E00E94050262E0B9
S11309508BE00E941B024AE061E671E0CE010E9436
S1130960A40681E691E00E9405028FE19EE40197CE
S1130970F1F700C00000809154018F9380915301DE
S11309808F9389E191E09F938F93CFE3D1E0DF933D
S1130990CF930E94C906CE010E9422058FE59AEEEC
S11309A00197F1F700C000001F921F938EE191E0C0
S11309B09F938F93DF93CF930E94C906CE010E9429
S11309C022058FE59AEE0197F1F700C000008091AF
S11309D03D011F928F9383E291E09F938F93DF9366
S11309E0CF930E94C906CE010E9422058FE59AEE9C
S11309F00197F1F700C000002DB73EB72E5E3F4FC0
S1130A000FB6F8943EBF0FBE2DBF5BCD8AB1826096
S1130A108AB98AB18E7F8AB91092C00087E690E0C5
S1130A209093C5008093C40088E18093C10086E060
S1130A308093C20008959091C00095FFFCCF8093ED
S1130A40C60008950F931F93CF938C01C0E003C099
S1130A500E941B05CF5FF801EC0FF11D808181110D
S1130A60F7CFCF911F910F9108958091C0008823F3
S1130A70E4F78091C60008958091C000882314F49F
S1130A8081E0089580E008950E9458050C94390689
S1130A900E94320658F00E942B0640F029F45F3F72
S1130AA029F00C94220651110C946D060C9428061E
S1130AB00E944A0668F39923B1F3552391F3951BD9
S1130AC0550BBB27AA2762177307840738F09F5F6B
S1130AD05F4F220F331F441FAA1FA9F335D00E2ED8
S1130AE03AF0E0E832D091505040E695001CCAF745
S1130AF02BD0FE2F29D0660F771F881FBB1F261708
S1130B0037074807AB07B0E809F0BB0B802DBF01DE
S1130B10FF2793585F4F3AF09E3F510578F00C94AD
S1130B2022060C946D065F3FE4F3983ED4F3869559
S1130B3077956795B795F7959F5FC9F7880F911DCE
S1130B409695879597F90895E1E0660F771F881FBA
S1130B50BB1F621773078407BA0720F0621B730B6D
S1130B60840BBA0BEE1F88F7E09508950E94520695
S1130B7088F09F5798F0B92F9927B751B0F0E1F05A
S1130B80660F771F881F991F1AF0BA95C9F714C00A
S1130B90B13091F00E946C06B1E008950C946C069B
S1130BA0672F782F8827B85F39F0B93FCCF3869543
S1130BB077956795B395D9F73EF4909580957095A0
S1130BC061957F4F8F4F9F4F0895E89409C097FB1D
S1130BD03EF490958095709561957F4F8F4F9F4F10
S1130BE09923A9F0F92F96E9BB279395F695879554
S1130BF077956795B795F111F8CFFAF4BB0F11F417
S1130C0060FF1BC06F5F7F4F8F4F9F4F16C08823BD
S1130C1011F096E911C0772321F09EE8872F762FF3
S1130C2005C0662371F096E8862F70E060E02AF034
S1130C309A95660F771F881FDAF7880F9695879520
S1130C4097F9089597F99F6780E870E060E0089548
S1130C509FEF80EC089500240A94161617061806D0
S1130C600906089500240A941216130614060506AC
S1130C700895092E0394000C11F4882352F0BB0F3D
S1130C8040F4BF2B11F460FF04C06F5F7F4F8F4FA0
S1130C909F4F089557FD9058440F551F59F05F3FDB
S1130CA071F04795880F97FB991F61F09F3F79F08A
S1130CB087950895121613061406551FF2CF46950C
S1130CC0F1DF08C0161617061806991FF1CF86958E
S1130CD07105610508940895E894BB276627772772
S1130CE0CB0197F90895A1E21A2EAA1BBB1BFD01A3
S1130CF00DC0AA1FBB1FEE1FFF1FA217B307E407F7
S1130D00F50720F0A21BB30BE40BF50B661F771F4E
S1130D10881F991F1A9469F760957095809590952E
S1130D209B01AC01BD01CF010895A29FB001B39F07
S1130D30C001A39F700D811D1124911DB29F700DE0
S1130D40811D1124911D0895BB274A3031F4992344
S1130D5022F4BDE2909581959F4F0C94B006BB2779
S1130D60FB015527AA27880F991FAA1FA41710F063
S1130D70A41B83955051B9F7A05DAA3308F0A95D6F
S1130D80A193009779F7B111B1931192CB010C940F
S1130D90E208AEE0B0E0EFECF6E00C949A090D89BD
S1130DA01E8986E08C831A8309838FEF9FE79E83D5
S1130DB08D83AE01475E5F4F6F89788DCE010196BA
S1130DC00E94EB06EF81F885E00FF11F10822E964A
S1130DD0E4E00C94B609ABE0B0E0E1EFF6E00C948B
S1130DE08C096C017B018A01FC01178216828381C4
S1130DF081FFCCC1CE0101963C01F6019381F7013C
S1130E0093FD859193FF81917F01882309F4BAC1F1
S1130E10853239F493FD859193FF81917F01853269
S1130E2029F4B60190E00E94F208E7CF912C212C1E
S1130E30312CFFE1F315D8F08B3279F038F480329D
S1130E4079F08332A1F4232D20611DC08D3261F02D
S1130E50803369F4232D216016C0832D8260382EDF
S1130E60E32DE4603E2E2AC0F32DF8601DC037FC4C
S1130E702DC020ED280F2A3040F08E32B9F436FC14
S1130E8081C1232D2064322E19C036FE06C08AE0AB
S1130E90989E200D1124922E11C0EAE02E9E200D62
S1130EA01124222EF32DF0623F2E08C08C3621F43B
S1130EB0832D8068382E02C0883641F4F70193FDF3
S1130EC0859193FF81917F018111B3CF982F9F7DED
S1130ED09554933028F40C5F1F4F9FE399830DC002
S1130EE0833631F0833771F0833509F059C021C05E
S1130EF0F801808189830E5F1F4F88248394912C8D
S1130F00530113C02801F2E04F0E511CF801A080D8
S1130F10B18036FE03C0692D70E002C06FEF7FEF31
S1130F20C5010E94D7084C018201F32DFF773F2EA3
S1130F3016C0280122E0420E511CF801A080B180A5
S1130F4036FE03C0692D70E002C06FEF7FEFC5016C
S1130F500E94CC084C01F32DF0683F2E820133FC33
S1130F601BC0822D90E088169906B0F4B60180E289
S1130F7090E00E94F2082A94F4CFF50137FC8591A1
S1130F8037FE81915F01B60190E00E94F2082110C2
S1130F902A9421E0821A91088114910471F7E8C01F
S1130FA0843611F0893641F5F80137FE07C06081B7
S1130FB07181828193810C5F1F4F08C060817181B0
S1130FC0072E000C880B990B0E5F1F4FF32DFF7635
S1130FD03F2E97FF09C090958095709561957F4F3E
S1130FE08F4F9F4FF0683F2E2AE030E0A3010E940C
S1130FF02E09882E861845C0853731F4232D2F7E7F
S1131000B22E2AE030E025C0932D997FB92E8F3679
S1131010C1F018F4883579F0B5C0803719F08837F5
S113102021F0B0C0E92FE061BE2EB4FE0DC0FB2D4F
S1131030F460BF2E09C034FE0AC0292F2660B22EE8
S113104006C028E030E005C020E130E002C020E125
S113105032E0F801B7FE07C060817181828193811B
S11310600C5F1F4F06C06081718180E090E00E5FCD
S11310701F4FA3010E942E09882E8618FB2DFF778F
S11310803F2E36FE0DC0232D2E7FA22E891458F438
S113109034FE0BC032FC09C0832D8E7EA82E05C001
S11310A0B82CA32C03C0B82C01C0B92CA4FE0FC0CB
S11310B0FE01E80DF11D8081803321F49A2D997E83
S11310C0A92E09C0A2FE06C0B394B39404C08A2D0D
S11310D0867809F0B394A3FC11C0A0FE06C0B21434
S11310E088F4280C922C9B180EC0B21460F4B6013C
S11310F080E290E00E94F208B394F7CFB21418F49F
S11311002B1802C0982C212CA4FE10C0B60180E339
S113111090E00E94F208A2FE17C0A1FC03C088E779
S113112090E002C088E590E0B6010CC08A2D867874
S113113059F0A1FE02C08BE201C080E2A7FC8DE25F
S1131140B60190E00E94F208891438F4B60180E3F5
S113115090E00E94F2089A94F7CF8A94F301E80D84
S1131160F11D8081B60190E00E94F2088110F5CF54
S1131170222009F442CEB60180E290E00E94F208F7
S11311802A94F6CFF6018681978102C08FEF9FEFF4
S11311902B96E2E10C94A809FC0105906150704083
S11311A00110D8F7809590958E0F9F1F0895FC012C
S11311B06150704001900110D8F7809590958E0F82
S11311C09F1F0895DC01FC01672F71917723E1F7DC
S11311D0329704C07C916D9370836291AE17BF0700
S11311E0C8F308950F931F93CF93DF93FB012381DB
S11311F021FD03C08FEF9FEF2CC022FF16C0468154
S11312005781248135814217530744F4A081B18169
S11312109D012F5F3F4F318320838C93268137813B
S11312202F5F3F4F3783268314C08B01EC01FB01F2
S11312300084F185E02D0995892BE1F6D8011696F5
S11312408D919C911797019617969C938E93169760
S1131250CE01DF91CF911F910F910895FA01AA2732
S1131260283051F1203181F1E8946F936E7F6E5FE5
S11312707F4F8F4F9F4FAF4FB1E03ED0B4E03CD093
S1131280670F781F891F9A1FA11D680F791F8A1F76
S1131290911DA11D6A0F711D811D911DA11D20D0DD
S11312A009F468943F912AE0269F11243019305D97
S11312B03193DEF6CF010895462F4770405D419388
S11312C0B3E00FD0C9F7F6CF462F4F70405D4A33D5
S11312D018F0495D31FD4052419302D0A9F7EACF9D
S11312E0B4E0A6959795879577956795BA95C9F7CC
S11312F000976105710508959B01AC010A2E0694BF
S11313005795479537952795BA95C9F7620F731F77
S1131310841F951FA01D08952F923F924F925F92B4
S11313206F927F928F929F92AF92BF92CF92DF92F1
S1131330EF92FF920F931F93CF93DF93CDB7DEB756
S1131340CA1BDB0B0FB6F894DEBF0FBECDBF0994EA
S11313502A88398848885F846E847D848C849B8441
S1131360AA84B984C884DF80EE80FD800C811B814F
S1131370AA81B981CE0FD11D0FB6F894DEBF0FBE7E
S10D1380CDBFED010895F894FFCFEE
S113138A4469733A20005065736F3A20004C757AA9
S113139A3A20002020202020005025640A004C25F1
S11313AA640A005825640A0044300A0044310A00D9
S10F13BA53300A0053310A0053320A0079
S9030000FC
