S01C000050726F796563746F314573636C61766F5065736F2E737265631E
S11300000C9434000C9446000C9446000C94460066
S11300100C9446000C9446000C9446000C94460044
S11300200C9446000C9446000C9446000C94460034
S11300300C9446000C9446000C9446000C94460024
S11300400C9446000C9446000C9446000C94460014
S11300500C9446000C9446000C9446000C94460004
S11300600C9440010C94460011241FBECFEFD8E03D
S1130070DEBFCDBF21E0A0E0B1E001C01D92A430FD
S1130080B207E1F70E9406010C94BF030C94000030
S11300908AB184608AB98AB1877F8AB98BB18B7F30
S11300A08BB9089589B186958695869591E08927BF
S11300B0817008950E9452008823E1F390E040E0AB
S11300C050E0BA0115C08BB184608BB985E08A9584
S11300D0F1F70000440F551F661F771F4B994160CD
S11300E08BB18B7F8BB985E08A95F1F700009F5F18
S11300F0983148F38BB184608BB985E08A95F1F728
S113010000008BB18B7F8BB985E08A95F1F70000F5
S113011067FD7F6FCB01BA0108952F923F924F92F2
S11301205F926F927F928F929F92AF92BF92CF9283
S1130130DF92EF92FF920F931F93CF93DF93282EBA
S1130140811102C022242394512C612C712C812C06
S1130150912CD0E0C0E0312C412C23C00E945A00E5
S11301606B017C01FF0CCC08DC2C7601262F372F89
S1130170482F592F6C2D7C2D8C2D9C2DA62CB72C03
S1130180C82CD92CED2EFC2E032D142D0E94B60361
S1130190622E732E842E952ED62FC72F382E492EDD
S11301A053945214D8F2A22CB12CC12CD12CE12C92
S11301B0F12C00E010E0262D372D482D592D6D2F00
S11301C07C2F832D942D0E94E102622F732F842FA4
S11301D0952FDF91CF911F910F91FF90EF90DF90BA
S11301E0CF90BF90AF909F908F907F906F905F90D3
S11301F04F903F902F90089597B19F7C97B9880FA7
S11302008093BA0085E48093BC0008958AB180612C
S11302108AB980E30E94FC000E944800789484E13B
S11302200E948D006B017C0182E00E948D006C199C
S11302307D098E099F090E942F0220E030E044E3EB
S113024052E40E948C014B015C0120E030E0A901E2
S11302500E94870188231CF4812C912C5401F8946A
S1130260C501B4010E94FE01709303016093020171
S113027078948FE39CE90197F1F700C00000D4CF94
S11302801F920F920FB60F9211248F939F93809118
S1130290B900887F803889F028F4803651F080379F
S11302A041F02BC0883AA9F0883BE9F0803929F560
S11302B004C085EC8093BC0023C08091BB00809374
S11302C00101823511F41092000185EC8093BC0089
S11302D017C080910201909103019093BB0085ECBB
S11302E08093BC000DC08091020190910301809322
S11302F0BB0085EC8093BC0003C085EC8093BC00FC
S11303009F918F910F900FBE0F901F9018950E9490
S11303106A0208F481E008950E94A0010C94A502E9
S11303200E949E0258F00E94970240F029F45F3F19
S113033029F00C948E0251110C94D9020C9494025D
S11303400E94B60268F39923B1F3552391F3951BE8
S1130350550BBB27AA2762177307840738F09F5FE2
S11303605F4F220F331F441FAA1FA9F335D00E2E4F
S11303703AF0E0E832D091505040E695001CCAF7BC
S11303802BD0FE2F29D0660F771F881FBB1F26177F
S113039037074807AB07B0E809F0BB0B802DBF0156
S11303A0FF2793585F4F3AF09E3F510578F00C9425
S11303B08E020C94D9025F3FE4F3983ED4F3869501
S11303C077956795B795F7959F5FC9F7880F911D46
S11303D09695879597F90895E1E0660F771F881F32
S11303E0BB1F621773078407BA0720F0621B730BE5
S11303F0840BBA0BEE1F88F7E09508950E94BE02A5
S113040088F09F5798F0B92F9927B751B0F0E1F0D1
S1130410660F771F881F991F1AF0BA95C9F714C081
S1130420B13091F00E94D802B1E008950C94D80242
S1130430672F782F8827B85F39F0B93FCCF38695BA
S113044077956795B395D9F73EF490958095709517
S113045061957F4F8F4F9F4F0895E89409C097FB94
S11304603EF490958095709561957F4F8F4F9F4F87
S11304709923A9F0F92F96E9BB279395F6958795CB
S113048077956795B795F111F8CFFAF4BB0F11F48E
S113049060FF1BC06F5F7F4F8F4F9F4F16C0882335
S11304A011F096E911C0772321F09EE8872F762F6B
S11304B005C0662371F096E8862F70E060E02AF0AC
S11304C09A95660F771F881FDAF7880F9695879598
S11304D097F90895990F0008550FAA0BE0E8FEEF6D
S11304E016161706E807F907C0F012161306E407F4
S11304F0F50798F0621B730B840B950B39F40A26ED
S113050061F0232B242B252B21F408950A2609F4CA
S1130510A140A6958FEF811D811D089597F99F67CE
S113052080E870E060E008959FEF80EC0895002477
S11305300A941616170618060906089500240A9444
S113054012161306140605060895092E0394000CCA
S113055011F4882352F0BB0F40F4BF2B11F460FF59
S113056004C06F5F7F4F8F4F9F4F089557FD905882
S1130570440F551F59F05F3F71F04795880F97FB63
S1130580991F61F09F3F79F087950895121613061D
S11305901406551FF2CF4695F1DF08C0161617064C
S11305A01806991FF1CF8695710561050894089581
S11305B0E894BB2766277727CB0197F908956894B9
S11305C001C0E894F92FF12B12F00C941303A0E06E
S11305D0B0E0EDEEF2E00C948503092E059422F4CC
S11305E00E946F03112392F4F0E80F26FFEFE094CA
S11305F0F09400951095B094C094D094A194BF0A3F
S1130600CF0ADF0AEF0AFF0A0F0B1F0B0E941E031B
S113061007FC0E946F03CDB7DEB7ECE00C94A10396
S1130620689401C0E8948F929F92CF93DF930E94C5
S11306301E03DF91CF919F908F9008958824992471
S1130640F401E401B0E49F93AA279A158B049C0457
S1130650ED05FE05CF05D007A10798F4AD2FDC2FDB
S1130660CF2FFE2FE92D982C892E982F872F762FA8
S1130670652F542F432F322F2227B85031F7BF91C3
S113068027C01B2EBF91BB27220F331F441F551FAA
S1130690661F771F881F991F881C991CEE1FFF1F58
S11306A0CC1FDD1FAA1FBB1F8A149B04EC05FD058C
S11306B0CE05DF05A007B10748F08A189B08EC09AE
S11306C0FD09CE09DF09A00BB10B21601A94E1F6F4
S11306D02EF49401AF01BE01CD01000C0895609584
S11306E070958095909530954095509521953F4F04
S11306F04F4F5F4F6F4F7F4F8F4F9F4F08952F92F4
S11307003F924F925F926F927F928F929F92AF929D
S1130710BF92CF92DF92EF92FF920F931F93CF93EA
S1130720DF93CDB7DEB7CA1BDB0B0FB6F894DEBF81
S11307300FBECDBF09942A88398848885F846E84A7
S11307407D848C849B84AA84B984C884DF80EE80F1
S1130750FD800C811B81AA81B981CE0FD11D0FB6FA
S1130760F894DEBF0FBECDBFED0108952A0D3B1DE9
S11307704C1D5D1D6E1D7F1D801F911F0895F894F3
S1050780FFCFA5
S9030000FC
