S023000050726F796563746F314573636C61766F556C747261736F6E69636F2E737265631B
S11300000C9434000C9446000C9446000C94460066
S11300100C9446000C9446000C9446000C94460044
S11300200C9446000C9446000C9446000C94460034
S11300300C9446000C9446000C9446000C94460024
S11300400C9446000C9446000C9446000C94460014
S11300500C9446000C9446000C9446000C94460004
S11300600C94DB000C94460011241FBECFEFD8E0A3
S1130070DEBFCDBF21E0A0E0B1E001C01D92A430FD
S1130080B207E1F70E94A8000C9446010C9400000A
S113009097B19F7C97B9880F8093BA0085E48093C9
S11300A0BC00089584B1886084B984B18F7E84B91A
S11300B085B1806185B9089585B1877F85B92AE0C6
S11300C02A95F1F700C085B1886085B985E38A95E2
S11300D0F1F7000085B1877F85B980E090E005C025
S11300E00196813325E79207E0F41C9BF9CF109227
S11300F085001092840082E08093810080E090E08B
S113010005C0019681362AEE920710F41C99F9CFA6
S11301101092810080918400909185009695879536
S113012008958FEF9FEF08950E945C009C01AFE952
S1130130B6E40E943701929582958F7089279F704B
S113014089278F3F910519F010F08FEF90E0089503
S11301508AB180618AB98AB188608AB90E945200E2
S113016080E30E944800789480910301823589F4E9
S11301700E94940080930201809102018F3020F448
S11301808BB180618BB903C08BB18F7E8BB9109218
S11301900301809103018C3439F78091010182338A
S11301A020F48BB1877F8BB903C08BB188608BB986
S11301B010920301D9CF1F920F920FB60F92112400
S11301C08F93EF93FF938091B9008C7F803A09F469
S11301D03FC058F48037A1F018F4803689F03CC051
S11301E0803891F0803981F037C0883B19F118F4D8
S11301F0883A01F131C0803C29F1883C19F12CC0C6
S113020085EC8093BC002BC080910001811108C053
S11302108091BB008093030181E08093000106C0BC
S11302208091BB00809301011092000185EC8093C2
S1130230BC0015C0809102018093BB0085EC8093C3
S1130240BC000DC0ECEBF0E0108285E4808307C0B5
S113025085EC8093BC0003C085EC8093BC00FF91C7
S1130260EF918F910F900FBE0F901F901895A29F42
S1130270B001B39FC001A39F700D811D1124911D76
S1130280B29F700D811D1124911D0895F894FFCF24
S9030000FC
