S01D000050726F796563746F314573636C61766F32546573742E73726563E2
S11300000C9434000C9451000C9451000C94510045
S11300100C9451000C9451000C9451000C94510018
S11300200C9451000C9451000C9451000C94510008
S11300300C9451000C9451000C9451000C945100F8
S11300400C9451000C9451000C9451000C945100E8
S11300500C9451000C9451000C9451000C945100D8
S11300600C9406010C94510011241FBECFEFD8E06C
S1130070DEBFCDBF11E0A0E0B1E0E2ECF2E002C0EF
S113008005900D92A031B107D9F721E0A0E1B1E0CC
S113009001C01D92A331B207E1F70E94D1000C9474
S11300A05F010C94000097B19F7C97B9880F8093EF
S11300B0BA0085E48093BC00089590E0FC01EE0F43
S11300C0FF1FEE0FFF1FE050FF4F2081222321F07E
S11300D02BB121602BB903C02BB12E7F2BB9FC01AE
S11300E0EE0FFF1FEE0FFF1FE050FF4F2181222371
S11300F021F02BB122602BB903C02BB12D7F2BB97A
S1130100FC01EE0FFF1FEE0FFF1FE050FF4F228197
S1130110222321F02BB124602BB903C02BB12B7FF8
S11301202BB9880F991F880F991FFC01E050FF4FCE
S11301308381882321F08BB188608BB908958BB1BA
S1130140877F8BB9089590911101809110019817C0
S113015088F4809111018F5F8093110180911101C6
S113016083700E945D008FE39CE90197F1F700C062
S1130170000008959091110180911001891780F475
S1130180809111018150809311018091110183703C
S11301900E945D008FE39CE90197F1F700C0000025
S11301A00895F8940E944F0187B1877F87B987B17A
S11301B08B7F87B987B18D7F87B98AB181608AB90E
S11301C08AB182608AB98AB184608AB98AB1886046
S11301D08AB98AB180618AB982E30E945300789413
S11301E080911201882379F0803118F41092100163
S11301F008C0833320F482E38093100102C010927C
S11302001001109212010E94A300EACF1F920F92D4
S11302100FB60F9211248F93EF93FF938091B9003F
S11302208C7F803A69F158F48037A1F018F4803655
S113023089F02AC0803891F0803981F025C0883B4C
S1130240A9F018F4883A91F01FC0803C99F0883CDA
S113025089F01AC085EC8093BC0019C08091BB0062
S11302608093120185EC8093BC0011C085EC8093CF
S1130270BC000DC0ECEBF0E0108285E4808307C085
S113028085EC8093BC0003C085EC8093BC00FF9197
S1130290EF918F910F900FBE0F901F90189584B11E
S11302A0826084B982E8809380008AE1809381002F
S11302B080E49CE990938700809386000895F894E5
S10502C0FFCF6A
S11302C20100010000010100000100010100000120
S9030000FC
